{
  "_format": "hh-sol-artifact-1",
  "contractName": "SubscriptionNFT",
  "sourceName": "contracts/SubscriptionNFT.sol",
  "abi": [
    {
      "inputs": [
        {
          "internalType": "address",
          "name": "initialOwner",
          "type": "address"
        },
        {
          "internalType": "address",
          "name": "_treasury",
          "type": "address"
        },
        {
          "internalType": "address",
          "name": "_signer",
          "type": "address"
        },
        {
          "internalType": "string",
          "name": "_baseHttpURI",
          "type": "string"
        }
      ],
      "stateMutability": "nonpayable",
      "type": "constructor"
    },
    {
      "inputs": [],
      "name": "ECDSAInvalidSignature",
      "type": "error"
    },
    {
      "inputs": [
        {
          "internalType": "uint256",
          "name": "length",
          "type": "uint256"
        }
      ],
      "name": "ECDSAInvalidSignatureLength",
      "type": "error"
    },
    {
      "inputs": [
        {
          "internalType": "bytes32",
          "name": "s",
          "type": "bytes32"
        }
      ],
      "name": "ECDSAInvalidSignatureS",
      "type": "error"
    },
    {
      "inputs": [
        {
          "internalType": "address",
          "name": "sender",
          "type": "address"
        },
        {
          "internalType": "uint256",
          "name": "tokenId",
          "type": "uint256"
        },
        {
          "internalType": "address",
          "name": "owner",
          "type": "address"
        }
      ],
      "name": "ERC721IncorrectOwner",
      "type": "error"
    },
    {
      "inputs": [
        {
          "internalType": "address",
          "name": "operator",
          "type": "address"
        },
        {
          "internalType": "uint256",
          "name": "tokenId",
          "type": "uint256"
        }
      ],
      "name": "ERC721InsufficientApproval",
      "type": "error"
    },
    {
      "inputs": [
        {
          "internalType": "address",
          "name": "approver",
          "type": "address"
        }
      ],
      "name": "ERC721InvalidApprover",
      "type": "error"
    },
    {
      "inputs": [
        {
          "internalType": "address",
          "name": "operator",
          "type": "address"
        }
      ],
      "name": "ERC721InvalidOperator",
      "type": "error"
    },
    {
      "inputs": [
        {
          "internalType": "address",
          "name": "owner",
          "type": "address"
        }
      ],
      "name": "ERC721InvalidOwner",
      "type": "error"
    },
    {
      "inputs": [
        {
          "internalType": "address",
          "name": "receiver",
          "type": "address"
        }
      ],
      "name": "ERC721InvalidReceiver",
      "type": "error"
    },
    {
      "inputs": [
        {
          "internalType": "address",
          "name": "sender",
          "type": "address"
        }
      ],
      "name": "ERC721InvalidSender",
      "type": "error"
    },
    {
      "inputs": [
        {
          "internalType": "uint256",
          "name": "tokenId",
          "type": "uint256"
        }
      ],
      "name": "ERC721NonexistentToken",
      "type": "error"
    },
    {
      "inputs": [],
      "name": "InvalidShortString",
      "type": "error"
    },
    {
      "inputs": [
        {
          "internalType": "address",
          "name": "owner",
          "type": "address"
        }
      ],
      "name": "OwnableInvalidOwner",
      "type": "error"
    },
    {
      "inputs": [
        {
          "internalType": "address",
          "name": "account",
          "type": "address"
        }
      ],
      "name": "OwnableUnauthorizedAccount",
      "type": "error"
    },
    {
      "inputs": [],
      "name": "Soulbound",
      "type": "error"
    },
    {
      "inputs": [
        {
          "internalType": "string",
          "name": "str",
          "type": "string"
        }
      ],
      "name": "StringTooLong",
      "type": "error"
    },
    {
      "anonymous": false,
      "inputs": [
        {
          "indexed": true,
          "internalType": "address",
          "name": "owner",
          "type": "address"
        },
        {
          "indexed": true,
          "internalType": "address",
          "name": "approved",
          "type": "address"
        },
        {
          "indexed": true,
          "internalType": "uint256",
          "name": "tokenId",
          "type": "uint256"
        }
      ],
      "name": "Approval",
      "type": "event"
    },
    {
      "anonymous": false,
      "inputs": [
        {
          "indexed": true,
          "internalType": "address",
          "name": "owner",
          "type": "address"
        },
        {
          "indexed": true,
          "internalType": "address",
          "name": "operator",
          "type": "address"
        },
        {
          "indexed": false,
          "internalType": "bool",
          "name": "approved",
          "type": "bool"
        }
      ],
      "name": "ApprovalForAll",
      "type": "event"
    },
    {
      "anonymous": false,
      "inputs": [],
      "name": "EIP712DomainChanged",
      "type": "event"
    },
    {
      "anonymous": false,
      "inputs": [
        {
          "indexed": true,
          "internalType": "address",
          "name": "previousOwner",
          "type": "address"
        },
        {
          "indexed": true,
          "internalType": "address",
          "name": "newOwner",
          "type": "address"
        }
      ],
      "name": "OwnershipTransferred",
      "type": "event"
    },
    {
      "anonymous": false,
      "inputs": [
        {
          "indexed": true,
          "internalType": "address",
          "name": "user",
          "type": "address"
        },
        {
          "indexed": true,
          "internalType": "uint256",
          "name": "tokenId",
          "type": "uint256"
        },
        {
          "indexed": false,
          "internalType": "uint8",
          "name": "planId",
          "type": "uint8"
        },
        {
          "indexed": false,
          "internalType": "uint256",
          "name": "priceWei",
          "type": "uint256"
        },
        {
          "indexed": false,
          "internalType": "uint16",
          "name": "discountBps",
          "type": "uint16"
        },
        {
          "indexed": false,
          "internalType": "uint256",
          "name": "netPrice",
          "type": "uint256"
        },
        {
          "indexed": false,
          "internalType": "uint256",
          "name": "expiresAt",
          "type": "uint256"
        },
        {
          "indexed": false,
          "internalType": "bytes32",
          "name": "sessionId",
          "type": "bytes32"
        }
      ],
      "name": "Renewed",
      "type": "event"
    },
    {
      "anonymous": false,
      "inputs": [
        {
          "indexed": true,
          "internalType": "address",
          "name": "user",
          "type": "address"
        },
        {
          "indexed": true,
          "internalType": "uint256",
          "name": "tokenId",
          "type": "uint256"
        },
        {
          "indexed": false,
          "internalType": "uint8",
          "name": "planId",
          "type": "uint8"
        },
        {
          "indexed": false,
          "internalType": "uint256",
          "name": "priceWei",
          "type": "uint256"
        },
        {
          "indexed": false,
          "internalType": "uint16",
          "name": "discountBps",
          "type": "uint16"
        },
        {
          "indexed": false,
          "internalType": "uint256",
          "name": "netPrice",
          "type": "uint256"
        },
        {
          "indexed": false,
          "internalType": "uint256",
          "name": "expiresAt",
          "type": "uint256"
        },
        {
          "indexed": false,
          "internalType": "uint8",
          "name": "variant",
          "type": "uint8"
        },
        {
          "indexed": false,
          "internalType": "bytes32",
          "name": "sessionId",
          "type": "bytes32"
        }
      ],
      "name": "Subscribed",
      "type": "event"
    },
    {
      "anonymous": false,
      "inputs": [
        {
          "indexed": true,
          "internalType": "address",
          "name": "from",
          "type": "address"
        },
        {
          "indexed": true,
          "internalType": "address",
          "name": "to",
          "type": "address"
        },
        {
          "indexed": true,
          "internalType": "uint256",
          "name": "tokenId",
          "type": "uint256"
        }
      ],
      "name": "Transfer",
      "type": "event"
    },
    {
      "inputs": [],
      "name": "PLAN_MONTHLY",
      "outputs": [
        {
          "internalType": "uint8",
          "name": "",
          "type": "uint8"
        }
      ],
      "stateMutability": "view",
      "type": "function"
    },
    {
      "inputs": [],
      "name": "PLAN_YEARLY",
      "outputs": [
        {
          "internalType": "uint8",
          "name": "",
          "type": "uint8"
        }
      ],
      "stateMutability": "view",
      "type": "function"
    },
    {
      "inputs": [
        {
          "internalType": "address",
          "name": "to",
          "type": "address"
        },
        {
          "internalType": "uint256",
          "name": "tokenId",
          "type": "uint256"
        }
      ],
      "name": "approve",
      "outputs": [],
      "stateMutability": "nonpayable",
      "type": "function"
    },
    {
      "inputs": [
        {
          "internalType": "address",
          "name": "owner",
          "type": "address"
        }
      ],
      "name": "balanceOf",
      "outputs": [
        {
          "internalType": "uint256",
          "name": "",
          "type": "uint256"
        }
      ],
      "stateMutability": "view",
      "type": "function"
    },
    {
      "inputs": [
        {
          "internalType": "uint8",
          "name": "",
          "type": "uint8"
        }
      ],
      "name": "durationSec",
      "outputs": [
        {
          "internalType": "uint256",
          "name": "",
          "type": "uint256"
        }
      ],
      "stateMutability": "view",
      "type": "function"
    },
    {
      "inputs": [],
      "name": "eip712Domain",
      "outputs": [
        {
          "internalType": "bytes1",
          "name": "fields",
          "type": "bytes1"
        },
        {
          "internalType": "string",
          "name": "name",
          "type": "string"
        },
        {
          "internalType": "string",
          "name": "version",
          "type": "string"
        },
        {
          "internalType": "uint256",
          "name": "chainId",
          "type": "uint256"
        },
        {
          "internalType": "address",
          "name": "verifyingContract",
          "type": "address"
        },
        {
          "internalType": "bytes32",
          "name": "salt",
          "type": "bytes32"
        },
        {
          "internalType": "uint256[]",
          "name": "extensions",
          "type": "uint256[]"
        }
      ],
      "stateMutability": "view",
      "type": "function"
    },
    {
      "inputs": [
        {
          "internalType": "uint256",
          "name": "",
          "type": "uint256"
        }
      ],
      "name": "expiresAt",
      "outputs": [
        {
          "internalType": "uint256",
          "name": "",
          "type": "uint256"
        }
      ],
      "stateMutability": "view",
      "type": "function"
    },
    {
      "inputs": [
        {
          "internalType": "uint256",
          "name": "tokenId",
          "type": "uint256"
        }
      ],
      "name": "getApproved",
      "outputs": [
        {
          "internalType": "address",
          "name": "",
          "type": "address"
        }
      ],
      "stateMutability": "view",
      "type": "function"
    },
    {
      "inputs": [
        {
          "internalType": "address",
          "name": "user",
          "type": "address"
        }
      ],
      "name": "isActive",
      "outputs": [
        {
          "internalType": "bool",
          "name": "",
          "type": "bool"
        }
      ],
      "stateMutability": "view",
      "type": "function"
    },
    {
      "inputs": [
        {
          "internalType": "address",
          "name": "owner",
          "type": "address"
        },
        {
          "internalType": "address",
          "name": "operator",
          "type": "address"
        }
      ],
      "name": "isApprovedForAll",
      "outputs": [
        {
          "internalType": "bool",
          "name": "",
          "type": "bool"
        }
      ],
      "stateMutability": "view",
      "type": "function"
    },
    {
      "inputs": [],
      "name": "name",
      "outputs": [
        {
          "internalType": "string",
          "name": "",
          "type": "string"
        }
      ],
      "stateMutability": "view",
      "type": "function"
    },
    {
      "inputs": [
        {
          "internalType": "bytes32",
          "name": "",
          "type": "bytes32"
        }
      ],
      "name": "nonceUsed",
      "outputs": [
        {
          "internalType": "bool",
          "name": "",
          "type": "bool"
        }
      ],
      "stateMutability": "view",
      "type": "function"
    },
    {
      "inputs": [],
      "name": "owner",
      "outputs": [
        {
          "internalType": "address",
          "name": "",
          "type": "address"
        }
      ],
      "stateMutability": "view",
      "type": "function"
    },
    {
      "inputs": [
        {
          "internalType": "uint256",
          "name": "tokenId",
          "type": "uint256"
        }
      ],
      "name": "ownerOf",
      "outputs": [
        {
          "internalType": "address",
          "name": "",
          "type": "address"
        }
      ],
      "stateMutability": "view",
      "type": "function"
    },
    {
      "inputs": [
        {
          "internalType": "uint8",
          "name": "",
          "type": "uint8"
        }
      ],
      "name": "priceWei",
      "outputs": [
        {
          "internalType": "uint256",
          "name": "",
          "type": "uint256"
        }
      ],
      "stateMutability": "view",
      "type": "function"
    },
    {
      "inputs": [],
      "name": "renounceOwnership",
      "outputs": [],
      "stateMutability": "nonpayable",
      "type": "function"
    },
    {
      "inputs": [
        {
          "internalType": "address",
          "name": "from",
          "type": "address"
        },
        {
          "internalType": "address",
          "name": "to",
          "type": "address"
        },
        {
          "internalType": "uint256",
          "name": "tokenId",
          "type": "uint256"
        }
      ],
      "name": "safeTransferFrom",
      "outputs": [],
      "stateMutability": "nonpayable",
      "type": "function"
    },
    {
      "inputs": [
        {
          "internalType": "address",
          "name": "from",
          "type": "address"
        },
        {
          "internalType": "address",
          "name": "to",
          "type": "address"
        },
        {
          "internalType": "uint256",
          "name": "tokenId",
          "type": "uint256"
        },
        {
          "internalType": "bytes",
          "name": "data",
          "type": "bytes"
        }
      ],
      "name": "safeTransferFrom",
      "outputs": [],
      "stateMutability": "nonpayable",
      "type": "function"
    },
    {
      "inputs": [
        {
          "internalType": "address",
          "name": "operator",
          "type": "address"
        },
        {
          "internalType": "bool",
          "name": "approved",
          "type": "bool"
        }
      ],
      "name": "setApprovalForAll",
      "outputs": [],
      "stateMutability": "nonpayable",
      "type": "function"
    },
    {
      "inputs": [
        {
          "internalType": "string",
          "name": "_uri",
          "type": "string"
        }
      ],
      "name": "setBaseHttpURI",
      "outputs": [],
      "stateMutability": "nonpayable",
      "type": "function"
    },
    {
      "inputs": [
        {
          "internalType": "uint256",
          "name": "monthlySec",
          "type": "uint256"
        },
        {
          "internalType": "uint256",
          "name": "yearlySec",
          "type": "uint256"
        }
      ],
      "name": "setDurations",
      "outputs": [],
      "stateMutability": "nonpayable",
      "type": "function"
    },
    {
      "inputs": [
        {
          "internalType": "uint256",
          "name": "monthlyWei",
          "type": "uint256"
        },
        {
          "internalType": "uint256",
          "name": "yearlyWei",
          "type": "uint256"
        }
      ],
      "name": "setPrices",
      "outputs": [],
      "stateMutability": "nonpayable",
      "type": "function"
    },
    {
      "inputs": [
        {
          "internalType": "address",
          "name": "_signer",
          "type": "address"
        }
      ],
      "name": "setSigner",
      "outputs": [],
      "stateMutability": "nonpayable",
      "type": "function"
    },
    {
      "inputs": [
        {
          "internalType": "bool",
          "name": "_soulbound",
          "type": "bool"
        }
      ],
      "name": "setSoulbound",
      "outputs": [],
      "stateMutability": "nonpayable",
      "type": "function"
    },
    {
      "inputs": [
        {
          "internalType": "address",
          "name": "_treasury",
          "type": "address"
        }
      ],
      "name": "setTreasury",
      "outputs": [],
      "stateMutability": "nonpayable",
      "type": "function"
    },
    {
      "inputs": [],
      "name": "signer",
      "outputs": [
        {
          "internalType": "address",
          "name": "",
          "type": "address"
        }
      ],
      "stateMutability": "view",
      "type": "function"
    },
    {
      "inputs": [],
      "name": "soulbound",
      "outputs": [
        {
          "internalType": "bool",
          "name": "",
          "type": "bool"
        }
      ],
      "stateMutability": "view",
      "type": "function"
    },
    {
      "inputs": [
        {
          "internalType": "uint8",
          "name": "planId",
          "type": "uint8"
        },
        {
          "internalType": "bytes",
          "name": "discountSig",
          "type": "bytes"
        },
        {
          "components": [
            {
              "internalType": "bytes32",
              "name": "sessionId",
              "type": "bytes32"
            },
            {
              "internalType": "address",
              "name": "wallet",
              "type": "address"
            },
            {
              "internalType": "uint8",
              "name": "planId",
              "type": "uint8"
            },
            {
              "internalType": "uint16",
              "name": "discountBps",
              "type": "uint16"
            },
            {
              "internalType": "bytes32",
              "name": "nonce",
              "type": "bytes32"
            },
            {
              "internalType": "uint256",
              "name": "deadline",
              "type": "uint256"
            },
            {
              "internalType": "uint256",
              "name": "chainId",
              "type": "uint256"
            },
            {
              "internalType": "address",
              "name": "contractAddr",
              "type": "address"
            },
            {
              "internalType": "uint8",
              "name": "variant",
              "type": "uint8"
            }
          ],
          "internalType": "struct SubscriptionNFT.DiscountPayload",
          "name": "p",
          "type": "tuple"
        }
      ],
      "name": "subscribe",
      "outputs": [],
      "stateMutability": "payable",
      "type": "function"
    },
    {
      "inputs": [
        {
          "internalType": "bytes4",
          "name": "interfaceId",
          "type": "bytes4"
        }
      ],
      "name": "supportsInterface",
      "outputs": [
        {
          "internalType": "bool",
          "name": "",
          "type": "bool"
        }
      ],
      "stateMutability": "view",
      "type": "function"
    },
    {
      "inputs": [],
      "name": "symbol",
      "outputs": [
        {
          "internalType": "string",
          "name": "",
          "type": "string"
        }
      ],
      "stateMutability": "view",
      "type": "function"
    },
    {
      "inputs": [
        {
          "internalType": "address",
          "name": "user",
          "type": "address"
        }
      ],
      "name": "tokenIdOf",
      "outputs": [
        {
          "internalType": "uint256",
          "name": "",
          "type": "uint256"
        }
      ],
      "stateMutability": "view",
      "type": "function"
    },
    {
      "inputs": [
        {
          "internalType": "uint256",
          "name": "tokenId",
          "type": "uint256"
        }
      ],
      "name": "tokenURI",
      "outputs": [
        {
          "internalType": "string",
          "name": "",
          "type": "string"
        }
      ],
      "stateMutability": "view",
      "type": "function"
    },
    {
      "inputs": [
        {
          "internalType": "address",
          "name": "from",
          "type": "address"
        },
        {
          "internalType": "address",
          "name": "to",
          "type": "address"
        },
        {
          "internalType": "uint256",
          "name": "tokenId",
          "type": "uint256"
        }
      ],
      "name": "transferFrom",
      "outputs": [],
      "stateMutability": "nonpayable",
      "type": "function"
    },
    {
      "inputs": [
        {
          "internalType": "address",
          "name": "newOwner",
          "type": "address"
        }
      ],
      "name": "transferOwnership",
      "outputs": [],
      "stateMutability": "nonpayable",
      "type": "function"
    },
    {
      "inputs": [],
      "name": "treasury",
      "outputs": [
        {
          "internalType": "address",
          "name": "",
          "type": "address"
        }
      ],
      "stateMutability": "view",
      "type": "function"
    },
    {
      "inputs": [
        {
          "internalType": "uint256",
          "name": "",
          "type": "uint256"
        }
      ],
      "name": "variantOf",
      "outputs": [
        {
          "internalType": "uint8",
          "name": "",
          "type": "uint8"
        }
      ],
      "stateMutability": "view",
      "type": "function"
    },
    {
      "inputs": [],
      "name": "withdraw",
      "outputs": [],
      "stateMutability": "nonpayable",
      "type": "function"
    }
  ],
  "bytecode": "0x61016080604052346200086657620031ba8038038091620000218285620008a3565b833981019060808183031262000866576200003c81620008c7565b6200004a60208301620008c7565b906200005960408401620008c7565b606084015190936001600160401b03821162000866570184601f82011215620008665780516001600160401b038111620005e95760405195620000a7601f8301601f191660200188620008a3565b818752602082840101116200086657620000c89160208088019101620008dc565b604051620000d6816200086b565b601381527f446f7463617265537562736372697074696f6e000000000000000000000000006020820152604051916200010f836200086b565b60018352603160f81b60208401526040516200012b816200086b565b601481527f446f746361726520537562736372697074696f6e00000000000000000000000060208201526040519062000164826200086b565b60058252642221a9aaa160d91b60208301528051906001600160401b038211620005e95760005490600182811c921680156200085b575b6020831014620005c85781601f849311620007fb575b50602090601f83116001146200077f5760009262000773575b50508160011b916000199060031b1c1916176000555b8051906001600160401b038211620005e95760015490600182811c9216801562000768575b6020831014620005c85781601f84931162000704575b50602090601f831160011462000686576000926200067a575b50508160011b916000199060031b1c1916176001555b6001600160a01b038116156200066157600680546001600160a01b039283166001600160a01b0319821681179092559091167f8be0079c531659141344cd1fd0a4f28419497f9722a3daafe3b4186f6b6457e0600080a3620002ac8162000901565b61012052620002bb8262000aa9565b6101405260208151910120908160e0526020815191012080610100524660a0526040519060208201927f8b73c3c69bb8fe3d512ecc4cf759cc79239f7b179b0ffacaa9a75d522b39400f8452604083015260608201524660808201523060a082015260a081526200032c8162000887565b5190206080523060c0526001600b8190556012805460ff191690911790556001600160a01b03169081156200062f576001600160a01b0316908115620005ff57600f80546001600160a01b03199081169290921790556010805490911691909117905580516001600160401b038111620005e957601154600181811c91168015620005de575b6020821014620005c857601f81116200055e575b50602091601f8211600114620004f457918192600092620004e8575b50508160011b916000199060031b1c1916176011555b62278d007f13da86008ba1c6922daee3e07db95305ef49ebced9f5467a0b8613fcc6b343e3556301e133807fbbc70db1b6c7afd11e79c0fb0051300458f1a3acb8ee9789d9b6b26c61ad9bc755600960205260007fec8156718a8372b1db44bb411437d0870f3e3790d4a08526d024ce1b0b668f6b819055600181527f92e85d02570a8092d09a6e3a57665bc3815a2699a4074001bf1ccabf660f5a3655604051612579908162000c0182396080518161213c015260a05181612208015260c05181612106015260e0518161218b015261010051816121b10152610120518161097b015261014051816109a40152f35b015190503880620003e2565b601f19821692601160005260206000209160005b85811062000545575083600195106200052b575b505050811b01601155620003f8565b015160001960f88460031b161c191690553880806200051c565b9192602060018192868501518155019401920162000508565b60116000527f31ecc21a745e3968a04e9570e4425bc18fa8019c68028196b546d1669c200c68601f830160051c81019160208410620005bd575b601f0160051c01905b818110620005b05750620003c6565b60008155600101620005a1565b909150819062000598565b634e487b7160e01b600052602260045260246000fd5b90607f1690620003b2565b634e487b7160e01b600052604160045260246000fd5b60405162461bcd60e51b815260206004820152600860248201526707369676e65723d360c41b6044820152606490fd5b60405162461bcd60e51b815260206004820152600a602482015269074726561737572793d360b41b6044820152606490fd5b604051631e4fbdf760e01b815260006004820152602490fd5b01519050388062000234565b6001600090815293506000805160206200319a83398151915291905b601f1984168510620006e8576001945083601f19811610620006ce575b505050811b016001556200024a565b015160001960f88460031b161c19169055388080620006bf565b81810151835560209485019460019093019290910190620006a2565b60016000529091506000805160206200319a833981519152601f840160051c810191602085106200075d575b90601f859493920160051c01905b8181106200074d57506200021b565b600081558493506001016200073e565b909150819062000730565b91607f169162000205565b015190503880620001ca565b600080805293506000805160206200317a83398151915291905b601f1984168510620007df576001945083601f19811610620007c5575b505050811b01600055620001e0565b015160001960f88460031b161c19169055388080620007b6565b8181015183556020948501946001909301929091019062000799565b600080529091506000805160206200317a833981519152601f840160051c81016020851062000853575b90849392915b601f830160051c8201811062000843575050620001b1565b600081558594506001016200082b565b508062000825565b91607f16916200019b565b600080fd5b604081019081106001600160401b03821117620005e957604052565b60c081019081106001600160401b03821117620005e957604052565b601f909101601f19168101906001600160401b03821190821017620005e957604052565b51906001600160a01b03821682036200086657565b60005b838110620008f05750506000910152565b8181015183820152602001620008df565b8051602090818110156200097f5750601f8251116200093d57808251920151908083106200092e57501790565b82600019910360031b1b161790565b604490620009719260405193849263305a27a960e01b845280600485015282519283918260248701528686019101620008dc565b601f01601f19168101030190fd5b906001600160401b038211620005e957600754926001938481811c9116801562000a9e575b83821014620005c857601f811162000a64575b5081601f8411600114620009f85750928293918392600094620009ec575b50501b916000199060031b1c19161760075560ff90565b015192503880620009d5565b919083601f198116600760005284600020946000905b8883831062000a49575050501062000a2f575b505050811b0160075560ff90565b015160001960f88460031b161c1916905538808062000a21565b85870151885590960195948501948793509081019062000a0e565b600760005284601f84600020920160051c820191601f860160051c015b82811062000a91575050620009b7565b6000815501859062000a81565b90607f1690620009a4565b80516020908181101562000ad65750601f8251116200093d57808251920151908083106200092e57501790565b906001600160401b038211620005e957600854926001938481811c9116801562000bf5575b83821014620005c857601f811162000bbb575b5081601f841160011462000b4f575092829391839260009462000b43575b50501b916000199060031b1c19161760085560ff90565b01519250388062000b2c565b919083601f198116600860005284600020946000905b8883831062000ba0575050501062000b86575b505050811b0160085560ff90565b015160001960f88460031b161c1916905538808062000b78565b85870151885590960195948501948793509081019062000b65565b600860005284601f84600020920160051c820191601f860160051c015b82811062000be857505062000b0e565b6000815501859062000bd8565b90607f169062000afb56fe608080604052600436101561001357600080fd5b60003560e01c90816301ffc9a714611a8c5750806305fefda714611a2557806306fdde031461197a578063081812fc1461193c578063095ea7b31461184b5780630fad0f511461182857806317c95709146117fc578063188a6013146117e0578063238ac933146117b757806323b872dd146117a0578063322b1cc51461176c5780633ccfd60b146116f857806342842e0e146116ca578063443403251461169657806361a4422b1461166557806361d027b31461163c5780636352211e1461160c5780636c19e7831461159457806370a082311461153b578063715018a6146114de578063750766ac1461136c578063773c02d41461133257806377d07c6414610a5c57806384b0196e146109625780638da5cb5b14610939578063959510a61461091d57806395d89b411461084e5780639f8a13d714610821578063a22cb46514610760578063a40b3998146106b5578063a4cf9cc114610686578063b88d4fde14610618578063c87b56dd1461034d578063df30e54b14610314578063e985e9c5146102be578063f0f44260146102445763f2fde38b146101b657600080fd5b3461023f57602036600319011261023f576101cf611b55565b6101d7611f78565b6001600160a01b0390811690811561022657600654826001600160601b0360a01b821617600655167f8be0079c531659141344cd1fd0a4f28419497f9722a3daafe3b4186f6b6457e0600080a3005b604051631e4fbdf760e01b815260006004820152602490fd5b600080fd5b3461023f57602036600319011261023f5761025d611b55565b610265611f78565b6001600160a01b0316801561028c576001600160601b0360a01b600f541617600f55600080f35b60405162461bcd60e51b815260206004820152600a602482015269074726561737572793d360b41b6044820152606490fd5b3461023f57604036600319011261023f576102d7611b55565b6102df611b6b565b9060018060a01b03809116600052600560205260406000209116600052602052602060ff604060002054166040519015158152f35b3461023f57602036600319011261023f5760043580151580910361023f5761033a611f78565b60ff801960125416911617601255600080f35b3461023f5760208060031936011261023f5760043560008181526002835260409020549091906001600160a01b0316156105d457600091807a184f03e93ff9f4daa797ed6e38ed64bf6a1f01000000000000000081818110156105c6575b50506d04ee2d6d415b85acef8100000000808310156105b8575b50662386f26fc10000808310156105a9575b506305f5e1008083101561059a575b506127108083101561058b575b50606482101561057b575b600a80921015610571575b600193600181019261043361041d85611c4e565b9461042b6040519687611c2c565b808652611c4e565b9286602187870194601f19809701368737870101905b610542575b5050506040519485916000916011549061046782611ca1565b918860018216918260001461051e5750506001146104b9575b505061049482916104a19651938491611b0d565b0103908101845283611c2c565b6104b5604051928284938452830190611b30565b0390f35b879692935060116000527f31ecc21a745e3968a04e9570e4425bc18fa8019c68028196b546d1669c200c68906000915b838310610506575050506104a19561049491850101929195610480565b8054838c018a015289988b97509092019181016104e9565b60ff1916878201528315159093028601909201935061049491506104a19050610480565b600019019082906f181899199a1a9b1b9c1cb0b131b232b360811b8282061a835304908782610449575061044e565b9260010192610409565b92906064600291049101926103fe565b600491949204910192846103f3565b600891949204910192846103e6565b601091949204910192846103d7565b8391949204910192846103c5565b6040955004915084806103ab565b6064906040519062461bcd60e51b82526004820152601f60248201527f55524920717565727920666f72206e6f6e6578697374656e7420746f6b656e006044820152fd5b3461023f57608036600319011261023f57610631611b55565b610639611b6b565b906044356064359267ffffffffffffffff841161023f573660238501121561023f57610672610684943690602481600401359101611c6a565b9261067e838383611cdb565b33611fdf565b005b3461023f57602036600319011261023f57600435600052600e602052602060ff60406000205416604051908152f35b3461023f576106c336611af7565b906106cc611f78565b80151580610757575b1561072a57600a6020527f13da86008ba1c6922daee3e07db95305ef49ebced9f5467a0b8613fcc6b343e35560016000527fbbc70db1b6c7afd11e79c0fb0051300458f1a3acb8ee9789d9b6b26c61ad9bc755005b60405162461bcd60e51b815260206004820152600560248201526406475723d360dc1b6044820152606490fd5b508115156106d5565b3461023f57604036600319011261023f57610779611b55565b6024359081151580920361023f5760ff6012541661080f576001600160a01b03169081156107f657336000526005602052604060002082600052602052604060002060ff1981541660ff83161790556040519081527f17307eab39ab6107e8899845ad3d59bd9653f200f220920489ca2b5937696c3160203392a3005b604051630b61174360e31b815260048101839052602490fd5b60405163a4420a9560e01b8152600490fd5b3461023f57602036600319011261023f57602061084461083f611b55565b611f40565b6040519015158152f35b3461023f57600036600319011261023f5760405160006001826001549261087484611ca1565b92838352602094856001821691826000146108fd5750506001146108a0575b506104a192500383611c2c565b84915060016000527fb10e2d527612073b26eecdfd717e6a320cf44b4afac2b0732d9fcbe2b7fa0cf6906000915b8583106108e55750506104a1935082010185610893565b805483890185015287945086939092019181016108ce565b60ff1916858201526104a195151560051b85010192508791506108939050565b3461023f57600036600319011261023f57602060405160018152f35b3461023f57600036600319011261023f576006546040516001600160a01b039091168152602090f35b3461023f57600036600319011261023f576109fd61099f7f00000000000000000000000000000000000000000000000000000000000000006122ef565b6109c87f00000000000000000000000000000000000000000000000000000000000000006123f3565b604051906109d582611bf4565b60008252610a0b602091604051958695600f60f81b875260e0602088015260e0870190611b30565b908582036040870152611b30565b466060850152306080850152600060a085015283810360c08501526020808451928381520193019160005b828110610a4557505050500390f35b835185528695509381019392810192600101610a36565b61016036600319011261023f57610a71611bb6565b60243567ffffffffffffffff811161023f57610a91903690600401611bc6565b61012036604319011261023f5760ff8316158015611325575b156112f15760ff831660ff610abd611ed4565b16036112b45760e43542116112855760c435600052601360205260ff6040600020541661125357610aec611ef5565b336001600160a01b039091160361121c574661010435036111e457610b0f611f0b565b306001600160a01b03909116036111ab57610b28611ef5565b90610b31611ed4565b610b39611f22565b61ffff610b44611f0b565b9160ff610b4f611ee4565b94604051977f4bd895b228a83561329234c8900605abe5b5f2ac79331cc779a522952146d9c160208a015260443560408a015260018060a01b031660608901521660808701521660a085015260c43560c085015260e43560e08501526101043561010085015260018060a01b031661012084015260ff610140911681840152825261016082019180831067ffffffffffffffff84111761119557610c38936042610c2992610c2f9560405260208151910120610c09612103565b906040519161190160f01b83526002830152602282015220923691611c6a565b9061222e565b9092919261226a565b6010546001600160a01b039081169116036111605760c43560005260136020526040600020600160ff1982541617905560ff8116600052600960205260406000205490811561113157612710918261ffff610c91611f22565b16116111005761ffff610ca2611f22565b168082029082820403611001578184820481031161100157838104820334036110c95733600052600c60205260406000205480156000146110175750600b549360001985146110015760018501600b55604051610cfe81611bf4565b600081523315610fe85760ff60125416610fa9575b6000868152600260205260409020546001600160a01b031680151590879082610f72575b3360005260036020526040600020600181540190558160005260026020526040600020336001600160601b0360a01b82541617905533907fddf252ad1be2c89b69c2b068fc378daa952ba7f163c4a11628f55a4df523b3ef600080a4610f5957333b610e6a575b5060ff92610daa611ee4565b86600052600e60205284604060002091168519825416179055838516600052600a602052610ddd60406000205442611f33565b9186600052600d6020528260406000205533600052600c60205286604060002055610e06611f22565b9361ffff610e12611ee4565b9587604051991689528460208a0152166040880152049003606085015260808401521660a082015260443560c08201527f506b11fd56d29ee1bf2fb0630701f77afa8cb127509b1421d090f00b3487ffc560e03392a3005b60405160208180610ea4630a85bd0160e11b95868352336004840152600060248401528b6044840152608060648401526084830190611b30565b03816000335af160009181610f14575b50610ee657610ec1611ea4565b80519081610ee157604051633250574960e11b8152336004820152602490fd5b602001fd5b6001600160e01b03191603610efc5760ff610d9e565b604051633250574960e11b8152336004820152602490fd5b9091506020813d602011610f51575b81610f3060209383611c2c565b8101031261023f57516001600160e01b03198116810361023f579088610eb4565b3d9150610f23565b6040516339e3563760e11b815260006004820152602490fd5b600082815260046020526040902080546001600160a01b031916905580600052600360205260406000206000198154019055610d37565b6000868152600260205260409020546001600160a01b0316151580610fe0575b15610d135760405163a4420a9560e01b8152600490fd5b506001610fc9565b604051633250574960e11b815260006004820152602490fd5b634e487b7160e01b600052601160045260246000fd5b9384600093929352600d6020526040600020544281116000146110bf57611051905b60ff8616600052600a60205260406000205490611f33565b9285600052600d6020528360406000205561ffff61106d611f22565b60ff604051971687528460208801521660408601520490036060830152608082015260443560a08201527f40f4d86e270c4ffc31dae8743e42da44a3a1ffd3759c7eb81ec77b8e0205c84460c03392a3005b5061105142611039565b60405162461bcd60e51b815260206004820152600f60248201526e77726f6e67206d73672e76616c756560881b6044820152606490fd5b60405162461bcd60e51b815260206004820152600960248201526806270733e31303030360bc1b6044820152606490fd5b60405162461bcd60e51b8152602060048201526007602482015266070726963653d360cc1b6044820152606490fd5b60405162461bcd60e51b815260206004820152600d60248201526c626164207369676e617475726560981b6044820152606490fd5b634e487b7160e01b600052604160045260246000fd5b60405162461bcd60e51b81526020600482015260116024820152700c6dedce8e4c2c6e840dad2e6dac2e8c6d607b1b6044820152606490fd5b60405162461bcd60e51b815260206004820152601060248201526f0c6d0c2d2dc92c840dad2e6dac2e8c6d60831b6044820152606490fd5b60405162461bcd60e51b815260206004820152600f60248201526e0eec2d8d8cae840dad2e6dac2e8c6d608b1b6044820152606490fd5b60405162461bcd60e51b815260206004820152600a6024820152691b9bdb98d9481d5cd95960b21b6044820152606490fd5b60405162461bcd60e51b8152602060048201526007602482015266195e1c1a5c995960ca1b6044820152606490fd5b60405162461bcd60e51b81526020600482015260156024820152740e0c2f2d8dec2c85ce0d8c2dc40dad2e6dac2e8c6d605b1b6044820152606490fd5b60405162461bcd60e51b815260206004820152600c60248201526b1c1b185b881a5b9d985b1a5960a21b6044820152606490fd5b50600160ff841614610aaa565b3461023f57602036600319011261023f576001600160a01b03611353611b55565b16600052600c6020526020604060002054604051908152f35b3461023f5760208060031936011261023f5767ffffffffffffffff60043581811161023f5761139f903690600401611bc6565b916113a8611f78565b8211611195576113b9601154611ca1565b601f811161147e575b50600092601f831160011461140157509181926000926113f6575b5050600019600383901b1c191660019190911b17601155005b0135905082806113dd565b601f198316937f31ecc21a745e3968a04e9570e4425bc18fa8019c68028196b546d1669c200c6892916000905b868210611466575050836001951061144c575b505050811b01601155005b0135600019600384901b60f8161c19169055828080611441565b8060018496829495870135815501950192019061142e565b7f31ecc21a745e3968a04e9570e4425bc18fa8019c68028196b546d1669c200c68601f840160051c810191602085106114d4575b601f0160051c01905b8181106114c857506113c2565b600081556001016114bb565b90915081906114b2565b3461023f57600036600319011261023f576114f7611f78565b600680546001600160a01b031981169091556000906001600160a01b03167f8be0079c531659141344cd1fd0a4f28419497f9722a3daafe3b4186f6b6457e08280a3005b3461023f57602036600319011261023f576001600160a01b0361155c611b55565b16801561157b5760005260036020526020604060002054604051908152f35b6040516322718ad960e21b815260006004820152602490fd5b3461023f57602036600319011261023f576115ad611b55565b6115b5611f78565b6001600160a01b031680156115dc576001600160601b0360a01b6010541617601055600080f35b60405162461bcd60e51b815260206004820152600860248201526707369676e65723d360c41b6044820152606490fd5b3461023f57602036600319011261023f57602061162a600435611fa4565b6040516001600160a01b039091168152f35b3461023f57600036600319011261023f57600f546040516001600160a01b039091168152602090f35b3461023f57602036600319011261023f576004356000526013602052602060ff604060002054166040519015158152f35b3461023f57602036600319011261023f5760ff6116b1611bb6565b16600052600a6020526020604060002054604051908152f35b3461023f576106846116db36611b81565b90604051926116e984611bf4565b6000845261067e838383611cdb565b3461023f57600036600319011261023f57611711611f78565b600080808060018060a01b03600f541647905af161172d611ea4565b501561173557005b60405162461bcd60e51b815260206004820152600f60248201526e1dda5d1a191c985dc819985a5b1959608a1b6044820152606490fd5b3461023f57602036600319011261023f5760ff611787611bb6565b1660005260096020526020604060002054604051908152f35b3461023f576106846117b136611b81565b91611cdb565b3461023f57600036600319011261023f576010546040516001600160a01b039091168152602090f35b3461023f57600036600319011261023f57602060405160008152f35b3461023f57602036600319011261023f57600435600052600d6020526020604060002054604051908152f35b3461023f57600036600319011261023f57602060ff601254166040519015158152f35b3461023f57604036600319011261023f57611864611b55565b60243560ff6012541661080f5761187a81611fa4565b33151580611929575b806118fc575b6118e4576001600160a01b039283169282918491167f8c5be1e5ebec7d5bd14f71427d1e84f3dd0314c0f7b2291e5b200ac8c7c3b925600080a4600090815260046020526040902080546001600160a01b0319169091179055005b60405163a9fbf51f60e01b8152336004820152602490fd5b5060018060a01b038116600052600560205260406000203360005260205260ff6040600020541615611889565b506001600160a01b038116331415611883565b3461023f57602036600319011261023f5760043561195981611fa4565b506000526004602052602060018060a01b0360406000205416604051908152f35b3461023f57600036600319011261023f5760405160008054908261199d83611ca1565b91828252602093600190856001821691826000146108fd5750506001146119cb57506104a192500383611c2c565b6000808052859250907f290decd9548b62a8d60345a988386fc84ba6bc95484008f6362f93160ef3e5635b858310611a0d5750506104a1935082010185610893565b805483890185015287945086939092019181016119f6565b3461023f57611a3336611af7565b90611a3c611f78565b60096020527fec8156718a8372b1db44bb411437d0870f3e3790d4a08526d024ce1b0b668f6b5560016000527f92e85d02570a8092d09a6e3a57665bc3815a2699a4074001bf1ccabf660f5a3655005b3461023f57602036600319011261023f576004359063ffffffff60e01b821680920361023f576020916380ac58cd60e01b8114908115611ae6575b8115611ad5575b5015158152f35b6301ffc9a760e01b14905083611ace565b635b5e139f60e01b81149150611ac7565b604090600319011261023f576004359060243590565b60005b838110611b205750506000910152565b8181015183820152602001611b10565b90602091611b4981518092818552858086019101611b0d565b601f01601f1916010190565b600435906001600160a01b038216820361023f57565b602435906001600160a01b038216820361023f57565b606090600319011261023f576001600160a01b0390600435828116810361023f5791602435908116810361023f579060443590565b6004359060ff8216820361023f57565b9181601f8401121561023f5782359167ffffffffffffffff831161023f576020838186019501011161023f57565b6020810190811067ffffffffffffffff82111761119557604052565b6040810190811067ffffffffffffffff82111761119557604052565b90601f8019910116810190811067ffffffffffffffff82111761119557604052565b67ffffffffffffffff811161119557601f01601f191660200190565b929192611c7682611c4e565b91611c846040519384611c2c565b82948184528183011161023f578281602093846000960137010152565b90600182811c92168015611cd1575b6020831014611cbb57565b634e487b7160e01b600052602260045260246000fd5b91607f1691611cb0565b6001600160a01b039182169290918315610fe85760ff60125416611e6c575b600092828452826020956002875260409684888820541696879133151580611dd6575b509060027fddf252ad1be2c89b69c2b068fc378daa952ba7f163c4a11628f55a4df523b3ef9284611da3575b858352600381528b8320805460010190558683525289812080546001600160a01b0319168517905580a41692838303611d825750505050565b6064945051926364283d7b60e01b8452600484015260248301526044820152fd5b600087815260046020526040902080546001600160a01b0319169055848352600381528b83208054600019019055611d49565b91939450915080611e2b575b15611df257859291879138611d1d565b878688611e0f576024915190637e27328960e01b82526004820152fd5b604491519063177e802f60e01b82523360048301526024820152fd5b503387148015611e50575b80611de25750858252600481523385898420541614611de2565b5086825260058152878220338352815260ff8883205416611e36565b8160005260026020528060406000205416151580611e9c575b15611cfa5760405163a4420a9560e01b8152600490fd5b506001611e85565b3d15611ecf573d90611eb582611c4e565b91611ec36040519384611c2c565b82523d6000602084013e565b606090565b60843560ff8116810361023f5790565b6101443560ff8116810361023f5790565b6064356001600160a01b038116810361023f5790565b610124356001600160a01b038116810361023f5790565b60a43561ffff8116810361023f5790565b9190820180921161100157565b6001600160a01b03166000908152600c60205260409020548015611f7257600052600d60205260406000205442111590565b50600090565b6006546001600160a01b03163303611f8c57565b60405163118cdaa760e01b8152336004820152602490fd5b6000818152600260205260409020546001600160a01b0316908115611fc7575090565b60249060405190637e27328960e01b82526004820152fd5b9293823b611fef575b5050505050565b6120339060018060a01b038094169560405194859481630a85bd0160e11b988988521660048701521660248501526044840152608060648401526084830190611b30565b03906020816000938185885af1908290826120b3575b50506120815782612058611ea4565b805191908261207a57604051633250574960e11b815260048101839052602490fd5b6020915001fd5b6001600160e01b0319160361209b57503880808080611fe8565b60249060405190633250574960e11b82526004820152fd5b909192506020813d6020116120fb575b816120d060209383611c2c565b810103126120f75751906001600160e01b0319821682036120f45750903880612049565b80fd5b5080fd5b3d91506120c3565b307f00000000000000000000000000000000000000000000000000000000000000006001600160a01b03161480612205575b1561215e577f000000000000000000000000000000000000000000000000000000000000000090565b60405160208101907f8b73c3c69bb8fe3d512ecc4cf759cc79239f7b179b0ffacaa9a75d522b39400f82527f000000000000000000000000000000000000000000000000000000000000000060408201527f000000000000000000000000000000000000000000000000000000000000000060608201524660808201523060a082015260a0815260c0810181811067ffffffffffffffff8211176111955760405251902090565b507f00000000000000000000000000000000000000000000000000000000000000004614612135565b815191906041830361225f5761225892506020820151906060604084015193015160001a906124b3565b9192909190565b505060009160029190565b60048110156122d9578061227c575050565b600181036122965760405163f645eedf60e01b8152600490fd5b600281036122b75760405163fce698f760e01b815260048101839052602490fd5b6003146122c15750565b602490604051906335e2f38360e21b82526004820152fd5b634e487b7160e01b600052602160045260246000fd5b60ff811461232d5760ff811690601f821161231b576040519161231183611c10565b8252602082015290565b604051632cd44ac360e21b8152600490fd5b5060405160075481600061234083611ca1565b808352926020906001908181169081156123cf575060011461236e575b505061236b92500382611c2c565b90565b91509260076000527fa66cc928b5edb82af9bd49922954155ab7b0942694bea4ce44661d9a8736c688936000925b8284106123b7575061236b945050508101602001388061235d565b8554878501830152948501948694509281019261239c565b9150506020925061236b94915060ff191682840152151560051b820101388061235d565b60ff81146124155760ff811690601f821161231b576040519161231183611c10565b5060405160085481600061242883611ca1565b808352926020906001908181169081156123cf575060011461245257505061236b92500382611c2c565b91509260086000527ff3f7a9fe364faab93b216da50a3214154f22a0a2b415b23a84c8169e8b636ee3936000925b82841061249b575061236b945050508101602001388061235d565b85548785018301529485019486945092810192612480565b91907f7fffffffffffffffffffffffffffffff5d576e7357a4501ddfe92f46681b20a0841161253757926020929160ff608095604051948552168484015260408301526060820152600092839182805260015afa1561252b5780516001600160a01b0381161561252257918190565b50809160019190565b604051903d90823e3d90fd5b5050506000916003919056fea2646970667358221220e52c4142d7f4b59322e4b4be2a21ab670a5ffac75242485ceb99a81bf738f68e64736f6c63430008180033290decd9548b62a8d60345a988386fc84ba6bc95484008f6362f93160ef3e563b10e2d527612073b26eecdfd717e6a320cf44b4afac2b0732d9fcbe2b7fa0cf6",
  "linkReferences": {},
  "deployedLinkReferences": {}
}